{
  "_format": "hh-sol-artifact-1",
  "contractName": "GrowRegistry",
  "sourceName": "contracts/GrowRegistry.sol",
  "abi": [
    {
      "inputs": [
        {
          "internalType": "string",
          "name": "_name",
          "type": "string"
        },
        {
          "internalType": "string",
          "name": "_symbol",
          "type": "string"
        },
        {
          "internalType": "string",
          "name": "_baseURI",
          "type": "string"
        }
      ],
      "stateMutability": "nonpayable",
      "type": "constructor"
    },
    {
      "inputs": [
        {
          "internalType": "address",
          "name": "operator",
          "type": "address"
        }
      ],
      "name": "AgentInstanceRegistered",
      "type": "error"
    },
    {
      "inputs": [
        {
          "internalType": "uint256",
          "name": "serviceId",
          "type": "uint256"
        }
      ],
      "name": "AgentInstancesSlotsFilled",
      "type": "error"
    },
    {
      "inputs": [
        {
          "internalType": "uint256",
          "name": "agentId",
          "type": "uint256"
        }
      ],
      "name": "AgentNotFound",
      "type": "error"
    },
    {
      "inputs": [
        {
          "internalType": "uint256",
          "name": "agentId",
          "type": "uint256"
        },
        {
          "internalType": "uint256",
          "name": "serviceId",
          "type": "uint256"
        }
      ],
      "name": "AgentNotInService",
      "type": "error"
    },
    {
      "inputs": [
        {
          "internalType": "uint256",
          "name": "componentId",
          "type": "uint256"
        }
      ],
      "name": "ComponentNotFound",
      "type": "error"
    },
    {
      "inputs": [
        {
          "internalType": "uint256",
          "name": "growId",
          "type": "uint256"
        }
      ],
      "name": "GrowNotFound",
      "type": "error"
    },
    {
      "inputs": [
        {
          "internalType": "address",
          "name": "sender",
          "type": "address"
        },
        {
          "internalType": "address",
          "name": "grower",
          "type": "address"
        },
        {
          "internalType": "uint256",
          "name": "growId",
          "type": "uint256"
        }
      ],
      "name": "GrowerOnly",
      "type": "error"
    },
    {
      "inputs": [],
      "name": "HashExists",
      "type": "error"
    },
    {
      "inputs": [
        {
          "internalType": "uint256",
          "name": "sent",
          "type": "uint256"
        },
        {
          "internalType": "uint256",
          "name": "expected",
          "type": "uint256"
        },
        {
          "internalType": "uint256",
          "name": "serviceId",
          "type": "uint256"
        }
      ],
      "name": "IncorrectAgentBondingValue",
      "type": "error"
    },
    {
      "inputs": [
        {
          "internalType": "uint256",
          "name": "sent",
          "type": "uint256"
        },
        {
          "internalType": "uint256",
          "name": "expected",
          "type": "uint256"
        },
        {
          "internalType": "uint256",
          "name": "serviceId",
          "type": "uint256"
        }
      ],
      "name": "IncorrectRegistrationDepositValue",
      "type": "error"
    },
    {
      "inputs": [
        {
          "internalType": "address",
          "name": "sender",
          "type": "address"
        },
        {
          "internalType": "address",
          "name": "manager",
          "type": "address"
        }
      ],
      "name": "ManagerOnly",
      "type": "error"
    },
    {
      "inputs": [
        {
          "internalType": "address",
          "name": "sender",
          "type": "address"
        },
        {
          "internalType": "address",
          "name": "multisig",
          "type": "address"
        },
        {
          "internalType": "uint256",
          "name": "growId",
          "type": "uint256"
        }
      ],
      "name": "MultisigOnly",
      "type": "error"
    },
    {
      "inputs": [
        {
          "internalType": "address",
          "name": "provided",
          "type": "address"
        },
        {
          "internalType": "address",
          "name": "expected",
          "type": "address"
        },
        {
          "internalType": "uint256",
          "name": "serviceId",
          "type": "uint256"
        }
      ],
      "name": "OnlyOwnServiceMultisig",
      "type": "error"
    },
    {
      "inputs": [
        {
          "internalType": "address",
          "name": "operator",
          "type": "address"
        },
        {
          "internalType": "uint256",
          "name": "serviceId",
          "type": "uint256"
        }
      ],
      "name": "OperatorHasNoInstances",
      "type": "error"
    },
    {
      "inputs": [
        {
          "internalType": "uint256",
          "name": "provided",
          "type": "uint256"
        },
        {
          "internalType": "uint256",
          "name": "max",
          "type": "uint256"
        }
      ],
      "name": "Overflow",
      "type": "error"
    },
    {
      "inputs": [
        {
          "internalType": "address",
          "name": "sender",
          "type": "address"
        },
        {
          "internalType": "address",
          "name": "owner",
          "type": "address"
        }
      ],
      "name": "OwnerOnly",
      "type": "error"
    },
    {
      "inputs": [],
      "name": "Paused",
      "type": "error"
    },
    {
      "inputs": [
        {
          "internalType": "uint256",
          "name": "growId",
          "type": "uint256"
        }
      ],
      "name": "RedeemNotApproved",
      "type": "error"
    },
    {
      "inputs": [],
      "name": "ReentrancyGuard",
      "type": "error"
    },
    {
      "inputs": [
        {
          "internalType": "uint256",
          "name": "serviceId",
          "type": "uint256"
        }
      ],
      "name": "ServiceMustBeInactive",
      "type": "error"
    },
    {
      "inputs": [
        {
          "internalType": "address",
          "name": "token",
          "type": "address"
        },
        {
          "internalType": "address",
          "name": "from",
          "type": "address"
        },
        {
          "internalType": "address",
          "name": "to",
          "type": "address"
        },
        {
          "internalType": "uint256",
          "name": "value",
          "type": "uint256"
        }
      ],
      "name": "TransferFailed",
      "type": "error"
    },
    {
      "inputs": [
        {
          "internalType": "address",
          "name": "multisig",
          "type": "address"
        }
      ],
      "name": "UnauthorizedMultisig",
      "type": "error"
    },
    {
      "inputs": [
        {
          "internalType": "uint256",
          "name": "agentId",
          "type": "uint256"
        }
      ],
      "name": "WrongAgentId",
      "type": "error"
    },
    {
      "inputs": [
        {
          "internalType": "uint256",
          "name": "numValues1",
          "type": "uint256"
        },
        {
          "internalType": "uint256",
          "name": "numValues2",
          "type": "uint256"
        }
      ],
      "name": "WrongArrayLength",
      "type": "error"
    },
    {
      "inputs": [
        {
          "internalType": "uint256",
          "name": "growId",
          "type": "uint256"
        }
      ],
      "name": "WrongGrowState",
      "type": "error"
    },
    {
      "inputs": [
        {
          "internalType": "uint256",
          "name": "serviceId",
          "type": "uint256"
        }
      ],
      "name": "WrongOperator",
      "type": "error"
    },
    {
      "inputs": [
        {
          "internalType": "uint256",
          "name": "state",
          "type": "uint256"
        },
        {
          "internalType": "uint256",
          "name": "serviceId",
          "type": "uint256"
        }
      ],
      "name": "WrongServiceState",
      "type": "error"
    },
    {
      "inputs": [
        {
          "internalType": "uint256",
          "name": "currentThreshold",
          "type": "uint256"
        },
        {
          "internalType": "uint256",
          "name": "minThreshold",
          "type": "uint256"
        },
        {
          "internalType": "uint256",
          "name": "maxThreshold",
          "type": "uint256"
        }
      ],
      "name": "WrongThreshold",
      "type": "error"
    },
    {
      "inputs": [],
      "name": "ZeroAddress",
      "type": "error"
    },
    {
      "inputs": [],
      "name": "ZeroValue",
      "type": "error"
    },
    {
      "anonymous": false,
      "inputs": [
        {
          "indexed": true,
          "internalType": "address",
          "name": "owner",
          "type": "address"
        },
        {
          "indexed": true,
          "internalType": "address",
          "name": "spender",
          "type": "address"
        },
        {
          "indexed": true,
          "internalType": "uint256",
          "name": "id",
          "type": "uint256"
        }
      ],
      "name": "Approval",
      "type": "event"
    },
    {
      "anonymous": false,
      "inputs": [
        {
          "indexed": true,
          "internalType": "address",
          "name": "owner",
          "type": "address"
        },
        {
          "indexed": true,
          "internalType": "address",
          "name": "operator",
          "type": "address"
        },
        {
          "indexed": false,
          "internalType": "bool",
          "name": "approved",
          "type": "bool"
        }
      ],
      "name": "ApprovalForAll",
      "type": "event"
    },
    {
      "anonymous": false,
      "inputs": [
        {
          "indexed": true,
          "internalType": "address",
          "name": "grower",
          "type": "address"
        },
        {
          "indexed": true,
          "internalType": "uint256",
          "name": "growId",
          "type": "uint256"
        }
      ],
      "name": "ApproveRedeem",
      "type": "event"
    },
    {
      "anonymous": false,
      "inputs": [
        {
          "indexed": false,
          "internalType": "string",
          "name": "baseURI",
          "type": "string"
        }
      ],
      "name": "BaseURIChanged",
      "type": "event"
    },
    {
      "anonymous": false,
      "inputs": [
        {
          "indexed": true,
          "internalType": "address",
          "name": "growOwner",
          "type": "address"
        },
        {
          "indexed": false,
          "internalType": "address",
          "name": "grower",
          "type": "address"
        },
        {
          "indexed": true,
          "internalType": "uint256",
          "name": "growId",
          "type": "uint256"
        },
        {
          "indexed": true,
          "internalType": "bytes32",
          "name": "growHash",
          "type": "bytes32"
        }
      ],
      "name": "CreateGrow",
      "type": "event"
    },
    {
      "anonymous": false,
      "inputs": [
        {
          "indexed": true,
          "internalType": "address",
          "name": "multisig",
          "type": "address"
        },
        {
          "indexed": true,
          "internalType": "uint256",
          "name": "growId",
          "type": "uint256"
        }
      ],
      "name": "Growing",
      "type": "event"
    },
    {
      "anonymous": false,
      "inputs": [
        {
          "indexed": true,
          "internalType": "address",
          "name": "grower",
          "type": "address"
        },
        {
          "indexed": true,
          "internalType": "uint256",
          "name": "growId",
          "type": "uint256"
        }
      ],
      "name": "HarvestProposed",
      "type": "event"
    },
    {
      "anonymous": false,
      "inputs": [
        {
          "indexed": true,
          "internalType": "address",
          "name": "grower",
          "type": "address"
        },
        {
          "indexed": true,
          "internalType": "uint256",
          "name": "growId",
          "type": "uint256"
        }
      ],
      "name": "Harvested",
      "type": "event"
    },
    {
      "anonymous": false,
      "inputs": [
        {
          "indexed": true,
          "internalType": "address",
          "name": "manager",
          "type": "address"
        }
      ],
      "name": "ManagerUpdated",
      "type": "event"
    },
    {
      "anonymous": false,
      "inputs": [
        {
          "indexed": true,
          "internalType": "address",
          "name": "owner",
          "type": "address"
        }
      ],
      "name": "OwnerUpdated",
      "type": "event"
    },
    {
      "anonymous": false,
      "inputs": [
        {
          "indexed": true,
          "internalType": "address",
          "name": "multisig",
          "type": "address"
        },
        {
          "indexed": true,
          "internalType": "uint256",
          "name": "growId",
          "type": "uint256"
        }
      ],
      "name": "ReadyToHarvest",
      "type": "event"
    },
    {
      "anonymous": false,
      "inputs": [
        {
          "indexed": true,
          "internalType": "address",
          "name": "growOwner",
          "type": "address"
        },
        {
          "indexed": true,
          "internalType": "uint256",
          "name": "growId",
          "type": "uint256"
        }
      ],
      "name": "Redeemed",
      "type": "event"
    },
    {
      "anonymous": false,
      "inputs": [
        {
          "indexed": true,
          "internalType": "address",
          "name": "from",
          "type": "address"
        },
        {
          "indexed": true,
          "internalType": "address",
          "name": "to",
          "type": "address"
        },
        {
          "indexed": true,
          "internalType": "uint256",
          "name": "id",
          "type": "uint256"
        }
      ],
      "name": "Transfer",
      "type": "event"
    },
    {
      "anonymous": false,
      "inputs": [
        {
          "indexed": true,
          "internalType": "address",
          "name": "grower",
          "type": "address"
        },
        {
          "indexed": true,
          "internalType": "uint256",
          "name": "growId",
          "type": "uint256"
        },
        {
          "indexed": true,
          "internalType": "bytes32",
          "name": "growHash",
          "type": "bytes32"
        }
      ],
      "name": "UpdateGrowHash",
      "type": "event"
    },
    {
      "inputs": [],
      "name": "CID_PREFIX",
      "outputs": [
        {
          "internalType": "string",
          "name": "",
          "type": "string"
        }
      ],
      "stateMutability": "view",
      "type": "function"
    },
    {
      "inputs": [],
      "name": "VERSION",
      "outputs": [
        {
          "internalType": "string",
          "name": "",
          "type": "string"
        }
      ],
      "stateMutability": "view",
      "type": "function"
    },
    {
      "inputs": [
        {
          "internalType": "address",
          "name": "spender",
          "type": "address"
        },
        {
          "internalType": "uint256",
          "name": "id",
          "type": "uint256"
        }
      ],
      "name": "approve",
      "outputs": [],
      "stateMutability": "nonpayable",
      "type": "function"
    },
    {
      "inputs": [
        {
          "internalType": "uint256",
          "name": "growId",
          "type": "uint256"
        }
      ],
      "name": "approveRedeem",
      "outputs": [],
      "stateMutability": "nonpayable",
      "type": "function"
    },
    {
      "inputs": [
        {
          "internalType": "address",
          "name": "owner",
          "type": "address"
        }
      ],
      "name": "balanceOf",
      "outputs": [
        {
          "internalType": "uint256",
          "name": "",
          "type": "uint256"
        }
      ],
      "stateMutability": "view",
      "type": "function"
    },
    {
      "inputs": [],
      "name": "baseURI",
      "outputs": [
        {
          "internalType": "string",
          "name": "",
          "type": "string"
        }
      ],
      "stateMutability": "view",
      "type": "function"
    },
    {
      "inputs": [
        {
          "internalType": "address",
          "name": "newManager",
          "type": "address"
        }
      ],
      "name": "changeManager",
      "outputs": [],
      "stateMutability": "nonpayable",
      "type": "function"
    },
    {
      "inputs": [
        {
          "internalType": "address",
          "name": "newOwner",
          "type": "address"
        }
      ],
      "name": "changeOwner",
      "outputs": [],
      "stateMutability": "nonpayable",
      "type": "function"
    },
    {
      "inputs": [
        {
          "internalType": "address",
          "name": "growOwner",
          "type": "address"
        },
        {
          "internalType": "address",
          "name": "grower",
          "type": "address"
        },
        {
          "internalType": "bytes32",
          "name": "growHash",
          "type": "bytes32"
        }
      ],
      "name": "create",
      "outputs": [
        {
          "internalType": "uint256",
          "name": "growId",
          "type": "uint256"
        }
      ],
      "stateMutability": "nonpayable",
      "type": "function"
    },
    {
      "inputs": [
        {
          "internalType": "uint256",
          "name": "unitId",
          "type": "uint256"
        }
      ],
      "name": "exists",
      "outputs": [
        {
          "internalType": "bool",
          "name": "",
          "type": "bool"
        }
      ],
      "stateMutability": "view",
      "type": "function"
    },
    {
      "inputs": [
        {
          "internalType": "uint256",
          "name": "",
          "type": "uint256"
        }
      ],
      "name": "getApproved",
      "outputs": [
        {
          "internalType": "address",
          "name": "",
          "type": "address"
        }
      ],
      "stateMutability": "view",
      "type": "function"
    },
    {
      "inputs": [
        {
          "internalType": "uint256",
          "name": "growId",
          "type": "uint256"
        }
      ],
      "name": "harvest",
      "outputs": [],
      "stateMutability": "nonpayable",
      "type": "function"
    },
    {
      "inputs": [
        {
          "internalType": "address",
          "name": "",
          "type": "address"
        },
        {
          "internalType": "address",
          "name": "",
          "type": "address"
        }
      ],
      "name": "isApprovedForAll",
      "outputs": [
        {
          "internalType": "bool",
          "name": "",
          "type": "bool"
        }
      ],
      "stateMutability": "view",
      "type": "function"
    },
    {
      "inputs": [],
      "name": "manager",
      "outputs": [
        {
          "internalType": "address",
          "name": "",
          "type": "address"
        }
      ],
      "stateMutability": "view",
      "type": "function"
    },
    {
      "inputs": [
        {
          "internalType": "uint256",
          "name": "",
          "type": "uint256"
        }
      ],
      "name": "mapGrows",
      "outputs": [
        {
          "internalType": "bytes32",
          "name": "hash",
          "type": "bytes32"
        },
        {
          "internalType": "address",
          "name": "grower",
          "type": "address"
        },
        {
          "internalType": "uint16",
          "name": "growTemperature",
          "type": "uint16"
        },
        {
          "internalType": "uint16",
          "name": "localTemperature",
          "type": "uint16"
        },
        {
          "internalType": "int8",
          "name": "moisture",
          "type": "int8"
        },
        {
          "internalType": "bool",
          "name": "approval",
          "type": "bool"
        },
        {
          "internalType": "enum GrowRegistry.GrowState",
          "name": "state",
          "type": "uint8"
        }
      ],
      "stateMutability": "view",
      "type": "function"
    },
    {
      "inputs": [],
      "name": "multisig",
      "outputs": [
        {
          "internalType": "address",
          "name": "",
          "type": "address"
        }
      ],
      "stateMutability": "view",
      "type": "function"
    },
    {
      "inputs": [],
      "name": "name",
      "outputs": [
        {
          "internalType": "string",
          "name": "",
          "type": "string"
        }
      ],
      "stateMutability": "view",
      "type": "function"
    },
    {
      "inputs": [],
      "name": "owner",
      "outputs": [
        {
          "internalType": "address",
          "name": "",
          "type": "address"
        }
      ],
      "stateMutability": "view",
      "type": "function"
    },
    {
      "inputs": [
        {
          "internalType": "uint256",
          "name": "id",
          "type": "uint256"
        }
      ],
      "name": "ownerOf",
      "outputs": [
        {
          "internalType": "address",
          "name": "owner",
          "type": "address"
        }
      ],
      "stateMutability": "view",
      "type": "function"
    },
    {
      "inputs": [
        {
          "internalType": "uint256",
          "name": "growId",
          "type": "uint256"
        }
      ],
      "name": "proposeToHarvest",
      "outputs": [],
      "stateMutability": "nonpayable",
      "type": "function"
    },
    {
      "inputs": [
        {
          "internalType": "uint256",
          "name": "growId",
          "type": "uint256"
        }
      ],
      "name": "redeem",
      "outputs": [],
      "stateMutability": "nonpayable",
      "type": "function"
    },
    {
      "inputs": [
        {
          "internalType": "address",
          "name": "from",
          "type": "address"
        },
        {
          "internalType": "address",
          "name": "to",
          "type": "address"
        },
        {
          "internalType": "uint256",
          "name": "id",
          "type": "uint256"
        }
      ],
      "name": "safeTransferFrom",
      "outputs": [],
      "stateMutability": "nonpayable",
      "type": "function"
    },
    {
      "inputs": [
        {
          "internalType": "address",
          "name": "from",
          "type": "address"
        },
        {
          "internalType": "address",
          "name": "to",
          "type": "address"
        },
        {
          "internalType": "uint256",
          "name": "id",
          "type": "uint256"
        },
        {
          "internalType": "bytes",
          "name": "data",
          "type": "bytes"
        }
      ],
      "name": "safeTransferFrom",
      "outputs": [],
      "stateMutability": "nonpayable",
      "type": "function"
    },
    {
      "inputs": [
        {
          "internalType": "address",
          "name": "operator",
          "type": "address"
        },
        {
          "internalType": "bool",
          "name": "approved",
          "type": "bool"
        }
      ],
      "name": "setApprovalForAll",
      "outputs": [],
      "stateMutability": "nonpayable",
      "type": "function"
    },
    {
      "inputs": [
        {
          "internalType": "string",
          "name": "bURI",
          "type": "string"
        }
      ],
      "name": "setBaseURI",
      "outputs": [],
      "stateMutability": "nonpayable",
      "type": "function"
    },
    {
      "inputs": [
        {
          "internalType": "uint256",
          "name": "growId",
          "type": "uint256"
        },
        {
          "internalType": "uint16",
          "name": "_growTemperature",
          "type": "uint16"
        },
        {
          "internalType": "uint16",
          "name": "_localTemperature",
          "type": "uint16"
        },
        {
          "internalType": "int8",
          "name": "_moisture",
          "type": "int8"
        }
      ],
      "name": "setGrowParameters",
      "outputs": [],
      "stateMutability": "nonpayable",
      "type": "function"
    },
    {
      "inputs": [
        {
          "internalType": "uint256",
          "name": "growId",
          "type": "uint256"
        },
        {
          "internalType": "bool",
          "name": "isReady",
          "type": "bool"
        }
      ],
      "name": "setGrowState",
      "outputs": [],
      "stateMutability": "nonpayable",
      "type": "function"
    },
    {
      "inputs": [
        {
          "internalType": "address",
          "name": "_multisig",
          "type": "address"
        }
      ],
      "name": "setMultisig",
      "outputs": [],
      "stateMutability": "nonpayable",
      "type": "function"
    },
    {
      "inputs": [
        {
          "internalType": "bytes4",
          "name": "interfaceId",
          "type": "bytes4"
        }
      ],
      "name": "supportsInterface",
      "outputs": [
        {
          "internalType": "bool",
          "name": "",
          "type": "bool"
        }
      ],
      "stateMutability": "view",
      "type": "function"
    },
    {
      "inputs": [],
      "name": "symbol",
      "outputs": [
        {
          "internalType": "string",
          "name": "",
          "type": "string"
        }
      ],
      "stateMutability": "view",
      "type": "function"
    },
    {
      "inputs": [
        {
          "internalType": "uint256",
          "name": "id",
          "type": "uint256"
        }
      ],
      "name": "tokenByIndex",
      "outputs": [
        {
          "internalType": "uint256",
          "name": "unitId",
          "type": "uint256"
        }
      ],
      "stateMutability": "view",
      "type": "function"
    },
    {
      "inputs": [
        {
          "internalType": "uint256",
          "name": "unitId",
          "type": "uint256"
        }
      ],
      "name": "tokenURI",
      "outputs": [
        {
          "internalType": "string",
          "name": "",
          "type": "string"
        }
      ],
      "stateMutability": "view",
      "type": "function"
    },
    {
      "inputs": [],
      "name": "totalSupply",
      "outputs": [
        {
          "internalType": "uint256",
          "name": "",
          "type": "uint256"
        }
      ],
      "stateMutability": "view",
      "type": "function"
    },
    {
      "inputs": [
        {
          "internalType": "address",
          "name": "from",
          "type": "address"
        },
        {
          "internalType": "address",
          "name": "to",
          "type": "address"
        },
        {
          "internalType": "uint256",
          "name": "id",
          "type": "uint256"
        }
      ],
      "name": "transferFrom",
      "outputs": [],
      "stateMutability": "nonpayable",
      "type": "function"
    },
    {
      "inputs": [
        {
          "internalType": "uint256",
          "name": "growId",
          "type": "uint256"
        },
        {
          "internalType": "bytes32",
          "name": "growHash",
          "type": "bytes32"
        }
      ],
      "name": "updateHash",
      "outputs": [],
      "stateMutability": "nonpayable",
      "type": "function"
    }
  ],
  "bytecode": "0x60806040526001600a553480156200001657600080fd5b50604051620033ae380380620033ae83398101604081905262000039916200014d565b828260006200004983826200026d565b5060016200005882826200026d565b50600891506200006b905082826200026d565b5050600680546001600160a01b0319163317905550620003399050565b634e487b7160e01b600052604160045260246000fd5b600082601f830112620000b057600080fd5b81516001600160401b0380821115620000cd57620000cd62000088565b604051601f8301601f19908116603f01168101908282118183101715620000f857620000f862000088565b816040528381526020925086838588010111156200011557600080fd5b600091505b838210156200013957858201830151818301840152908201906200011a565b600093810190920192909252949350505050565b6000806000606084860312156200016357600080fd5b83516001600160401b03808211156200017b57600080fd5b62000189878388016200009e565b94506020860151915080821115620001a057600080fd5b620001ae878388016200009e565b93506040860151915080821115620001c557600080fd5b50620001d4868287016200009e565b9150509250925092565b600181811c90821680620001f357607f821691505b6020821081036200021457634e487b7160e01b600052602260045260246000fd5b50919050565b601f8211156200026857600081815260208120601f850160051c81016020861015620002435750805b601f850160051c820191505b8181101562000264578281556001016200024f565b5050505b505050565b81516001600160401b0381111562000289576200028962000088565b620002a1816200029a8454620001de565b846200021a565b602080601f831160018114620002d95760008415620002c05750858301515b600019600386901b1c1916600185901b17855562000264565b600085815260208120601f198616915b828110156200030a57888601518255948401946001909101908401620002e9565b5085821015620003295787850151600019600388901b60f8161c191681555b5050505050600190811b01905550565b61306580620003496000396000f3fe608060405234801561001057600080fd5b50600436106102415760003560e01c80637c5e63e011610145578063c87b56dd116100bd578063e985e9c51161008c578063f033aa1211610071578063f033aa121461063e578063f3283fba14610651578063ffa1ad741461066457600080fd5b8063e985e9c5146105fd578063ec09f4c91461062b57600080fd5b8063c87b56dd146105b1578063d1692f56146105c4578063db006a75146105d7578063ddc63262146105ea57600080fd5b8063a22cb46511610114578063a6f9dae1116100f9578063a6f9dae114610578578063b1f52e801461058b578063b88d4fde1461059e57600080fd5b8063a22cb46514610552578063a3fbbaae1461056557600080fd5b80637c5e63e0146104db5780638da5cb5b1461051757806395c339871461053757806395d89b411461054a57600080fd5b806342842e0e116101d85780634f6ccce7116101a75780636352211e1161018c5780636352211e146104ad5780636c0360eb146104c057806370a08231146104c857600080fd5b80634f6ccce71461048757806355f804b31461049a57600080fd5b806342842e0e146104215780634783c35b14610434578063481c6a75146104545780634f558e791461047457600080fd5b80630f2920aa116102145780630f2920aa146102f357806318160ddd146103e457806323b872dd146103fb5780633eb09ece1461040e57600080fd5b806301ffc9a71461024657806306fdde031461026e578063081812fc14610283578063095ea7b3146102de575b600080fd5b6102596102543660046127cf565b6106a0565b60405190151581526020015b60405180910390f35b610276610785565b6040516102659190612817565b6102b9610291366004612868565b60046020526000908152604090205473ffffffffffffffffffffffffffffffffffffffff1681565b60405173ffffffffffffffffffffffffffffffffffffffff9091168152602001610265565b6102f16102ec3660046128a5565b610813565b005b6103d1610301366004612868565b600c6020526000908152604081208054600190910154909173ffffffffffffffffffffffffffffffffffffffff82169161ffff7401000000000000000000000000000000000000000082048116927601000000000000000000000000000000000000000000008304909116917801000000000000000000000000000000000000000000000000810490910b9060ff79010000000000000000000000000000000000000000000000000082048116917a01000000000000000000000000000000000000000000000000000090041687565b60405161026597969594939291906128fe565b6103ed60095481565b604051908152602001610265565b6102f161040936600461298e565b610962565b6102f161041c366004612868565b610c29565b6102f161042f36600461298e565b610d9d565b600b546102b99073ffffffffffffffffffffffffffffffffffffffff1681565b6007546102b99073ffffffffffffffffffffffffffffffffffffffff1681565b610259610482366004612868565b610f04565b6103ed610495366004612868565b610f26565b6102f16104a83660046129f9565b610f84565b6102b96104bb366004612868565b611079565b610276611105565b6103ed6104d6366004612ac8565b611112565b6102766040518060400160405280600981526020017f663031373031323230000000000000000000000000000000000000000000000081525081565b6006546102b99073ffffffffffffffffffffffffffffffffffffffff1681565b6102f1610545366004612af5565b6111ba565b61027661131b565b6102f1610560366004612b5a565b611328565b6102f1610573366004612ac8565b6113bf565b6102f1610586366004612ac8565b6114ee565b6102f1610599366004612b8d565b61161d565b6102f16105ac366004612baf565b611717565b6102766105bf366004612868565b61186e565b6103ed6105d236600461298e565b6118f5565b6102f16105e5366004612868565b611ab5565b6102f16105f8366004612868565b611c91565b61025961060b366004612c4a565b600560209081526000928352604080842090915290825290205460ff1681565b6102f1610639366004612c74565b611e06565b6102f161064c366004612868565b611fdf565b6102f161065f366004612ac8565b612154565b6102766040518060400160405280600581526020017f312e302e3000000000000000000000000000000000000000000000000000000081525081565b60007f01ffc9a7000000000000000000000000000000000000000000000000000000007fffffffff000000000000000000000000000000000000000000000000000000008316148061073357507f80ac58cd000000000000000000000000000000000000000000000000000000007fffffffff000000000000000000000000000000000000000000000000000000008316145b8061077f57507f5b5e139f000000000000000000000000000000000000000000000000000000007fffffffff000000000000000000000000000000000000000000000000000000008316145b92915050565b6000805461079290612c97565b80601f01602080910402602001604051908101604052809291908181526020018280546107be90612c97565b801561080b5780601f106107e05761010080835404028352916020019161080b565b820191906000526020600020905b8154815290600101906020018083116107ee57829003601f168201915b505050505081565b60008181526002602052604090205473ffffffffffffffffffffffffffffffffffffffff1633811480610876575073ffffffffffffffffffffffffffffffffffffffff8116600090815260056020908152604080832033845290915290205460ff165b6108e1576040517f08c379a000000000000000000000000000000000000000000000000000000000815260206004820152600e60248201527f4e4f545f415554484f52495a454400000000000000000000000000000000000060448201526064015b60405180910390fd5b60008281526004602052604080822080547fffffffffffffffffffffffff00000000000000000000000000000000000000001673ffffffffffffffffffffffffffffffffffffffff87811691821790925591518593918516917f8c5be1e5ebec7d5bd14f71427d1e84f3dd0314c0f7b2291e5b200ac8c7c3b92591a4505050565b60008181526002602052604090205473ffffffffffffffffffffffffffffffffffffffff8481169116146109f2576040517f08c379a000000000000000000000000000000000000000000000000000000000815260206004820152600a60248201527f57524f4e475f46524f4d0000000000000000000000000000000000000000000060448201526064016108d8565b73ffffffffffffffffffffffffffffffffffffffff8216610a6f576040517f08c379a000000000000000000000000000000000000000000000000000000000815260206004820152601160248201527f494e56414c49445f524543495049454e5400000000000000000000000000000060448201526064016108d8565b3373ffffffffffffffffffffffffffffffffffffffff84161480610ac3575073ffffffffffffffffffffffffffffffffffffffff8316600090815260056020908152604080832033845290915290205460ff165b80610af1575060008181526004602052604090205473ffffffffffffffffffffffffffffffffffffffff1633145b610b57576040517f08c379a000000000000000000000000000000000000000000000000000000000815260206004820152600e60248201527f4e4f545f415554484f52495a454400000000000000000000000000000000000060448201526064016108d8565b73ffffffffffffffffffffffffffffffffffffffff808416600081815260036020908152604080832080547fffffffffffffffffffffffffffffffffffffffffffffffffffffffffffffffff019055938616808352848320805460010190558583526002825284832080547fffffffffffffffffffffffff00000000000000000000000000000000000000009081168317909155600490925284832080549092169091559251849392917fddf252ad1be2c89b69c2b068fc378daa952ba7f163c4a11628f55a4df523b3ef91a4505050565b6000818152600c60205260409020600181015473ffffffffffffffffffffffffffffffffffffffff16338114610cb0576040517fc8716e2e00000000000000000000000000000000000000000000000000000000815233600482015273ffffffffffffffffffffffffffffffffffffffff82166024820152604481018490526064016108d8565b60018201547a010000000000000000000000000000000000000000000000000000900460ff166003816004811115610cea57610cea6128cf565b14610d24576040517f2e0d859e000000000000000000000000000000000000000000000000000000008152600481018590526024016108d8565b6001830180547fffffffffffff00ffffffffffffffffffffffffffffffffffffffffffffffffff16790100000000000000000000000000000000000000000000000000179055604051849033907f5697c74e2c976b22425986e9e9b23e9f10508050179d95904ac620f05989c63090600090a350505050565b610da8838383610962565b73ffffffffffffffffffffffffffffffffffffffff82163b15610eff576040517f150b7a020000000000000000000000000000000000000000000000000000000080825233600483015273ffffffffffffffffffffffffffffffffffffffff858116602484015260448301849052608060648401526000608484015290919084169063150b7a029060a4016020604051808303816000875af1158015610e52573d6000803e3d6000fd5b505050506040513d601f19601f82011682018060405250810190610e769190612cea565b7fffffffff000000000000000000000000000000000000000000000000000000001614610eff576040517f08c379a000000000000000000000000000000000000000000000000000000000815260206004820152601060248201527f554e534146455f524543495049454e540000000000000000000000000000000060448201526064016108d8565b505050565b6000808211801561077f5750600954610f1e906001612d36565b821092915050565b6000610f33826001612d36565b9050600954811115610f7f576009546040517f7ae596850000000000000000000000000000000000000000000000000000000081526108d8918391600401918252602082015260400190565b919050565b60065473ffffffffffffffffffffffffffffffffffffffff163314610ff7576006546040517fa43d6ada00000000000000000000000000000000000000000000000000000000815233600482015273ffffffffffffffffffffffffffffffffffffffff90911660248201526044016108d8565b8051600003611032576040517f7c946ed700000000000000000000000000000000000000000000000000000000815260040160405180910390fd5b600861103e8282612d97565b507f5411e8ebf1636d9e83d5fc4900bf80cbac82e8790da2a4c94db4895e889eedf68160405161106e9190612817565b60405180910390a150565b60008181526002602052604090205473ffffffffffffffffffffffffffffffffffffffff1680610f7f576040517f08c379a000000000000000000000000000000000000000000000000000000000815260206004820152600a60248201527f4e4f545f4d494e5445440000000000000000000000000000000000000000000060448201526064016108d8565b6008805461079290612c97565b600073ffffffffffffffffffffffffffffffffffffffff8216611191576040517f08c379a000000000000000000000000000000000000000000000000000000000815260206004820152600c60248201527f5a45524f5f41444452455353000000000000000000000000000000000000000060448201526064016108d8565b5073ffffffffffffffffffffffffffffffffffffffff1660009081526003602052604090205490565b600b5473ffffffffffffffffffffffffffffffffffffffff16331461123457600b546040517fbceea52800000000000000000000000000000000000000000000000000000000815233600482015273ffffffffffffffffffffffffffffffffffffffff9091166024820152604481018590526064016108d8565b6000938452600c602052604090932060010180547fffffffffffffffff00000000ffffffffffffffffffffffffffffffffffffffff167401000000000000000000000000000000000000000061ffff948516027fffffffffffffffff0000ffffffffffffffffffffffffffffffffffffffffffff16177601000000000000000000000000000000000000000000009290931691909102919091177fffffffffffffff00ffffffffffffffffffffffffffffffffffffffffffffffff16780100000000000000000000000000000000000000000000000060ff90931692909202919091179055565b6001805461079290612c97565b33600081815260056020908152604080832073ffffffffffffffffffffffffffffffffffffffff87168085529083529281902080547fffffffffffffffffffffffffffffffffffffffffffffffffffffffffffffff001686151590811790915590519081529192917f17307eab39ab6107e8899845ad3d59bd9653f200f220920489ca2b5937696c31910160405180910390a35050565b60065473ffffffffffffffffffffffffffffffffffffffff163314611432576006546040517fa43d6ada00000000000000000000000000000000000000000000000000000000815233600482015273ffffffffffffffffffffffffffffffffffffffff90911660248201526044016108d8565b73ffffffffffffffffffffffffffffffffffffffff811661147f576040517fd92e233d00000000000000000000000000000000000000000000000000000000815260040160405180910390fd5b600780547fffffffffffffffffffffffff00000000000000000000000000000000000000001673ffffffffffffffffffffffffffffffffffffffff83169081179091556040517f2c1c11af44aa5608f1dca38c00275c30ea091e02417d36e70e9a1538689c433d90600090a250565b60065473ffffffffffffffffffffffffffffffffffffffff163314611561576006546040517fa43d6ada00000000000000000000000000000000000000000000000000000000815233600482015273ffffffffffffffffffffffffffffffffffffffff90911660248201526044016108d8565b73ffffffffffffffffffffffffffffffffffffffff81166115ae576040517fd92e233d00000000000000000000000000000000000000000000000000000000815260040160405180910390fd5b600680547fffffffffffffffffffffffff00000000000000000000000000000000000000001673ffffffffffffffffffffffffffffffffffffffff83169081179091556040517f4ffd725fc4a22075e9ec71c59edf9c38cdeb588a91b24fc5b61388c5be41282b90600090a250565b6000828152600c60205260409020600181015473ffffffffffffffffffffffffffffffffffffffff163381146116a4576040517fc8716e2e00000000000000000000000000000000000000000000000000000000815233600482015273ffffffffffffffffffffffffffffffffffffffff82166024820152604481018590526064016108d8565b60008390036116df576040517f7c946ed700000000000000000000000000000000000000000000000000000000815260040160405180910390fd5b8282556040518390859033907f348add2df51e98e0b1dca8dd94b423ce063763913862772fc749bbc2645539d990600090a450505050565b611722858585610962565b73ffffffffffffffffffffffffffffffffffffffff84163b15611867576040517f150b7a02000000000000000000000000000000000000000000000000000000008082529073ffffffffffffffffffffffffffffffffffffffff86169063150b7a029061179b9033908a90899089908990600401612eb1565b6020604051808303816000875af11580156117ba573d6000803e3d6000fd5b505050506040513d601f19601f820116820180604052508101906117de9190612cea565b7fffffffff000000000000000000000000000000000000000000000000000000001614611867576040517f08c379a000000000000000000000000000000000000000000000000000000000815260206004820152601060248201527f554e534146455f524543495049454e540000000000000000000000000000000060448201526064016108d8565b5050505050565b6060600061187b8361225b565b905060086040518060400160405280600981526020017f66303137303132323000000000000000000000000000000000000000000000008152506118be836122bb565b6118cb608085901b6122bb565b6040516020016118de9493929190612f30565b604051602081830303815290604052915050919050565b60006001600a541115611934576040517f8beb9d1600000000000000000000000000000000000000000000000000000000815260040160405180910390fd5b6002600a5573ffffffffffffffffffffffffffffffffffffffff84161580611970575073ffffffffffffffffffffffffffffffffffffffff8316155b156119a7576040517fd92e233d00000000000000000000000000000000000000000000000000000000815260040160405180910390fd5b60008290036119e2576040517f7c946ed700000000000000000000000000000000000000000000000000000000815260040160405180910390fd5b50600954806119f081612fe0565b6000818152600c602052604090208481556001810180547fffffffffffffffffffffffff00000000000000000000000000000000000000001673ffffffffffffffffffffffffffffffffffffffff881617905560098290559092509050611a5785836124a3565b60405173ffffffffffffffffffffffffffffffffffffffff8581168252849184918816907f093259b15c83d9afa357bf28793b4861b7598f47c03cc01a58e8e182ba2f44d69060200160405180910390a4506001600a559392505050565b6000818152600c6020526040812090611acd83611079565b905073ffffffffffffffffffffffffffffffffffffffff81163314611b43576040517fc8716e2e00000000000000000000000000000000000000000000000000000000815233600482015273ffffffffffffffffffffffffffffffffffffffff82166024820152604481018490526064016108d8565b60018201547a010000000000000000000000000000000000000000000000000000900460ff166003816004811115611b7d57611b7d6128cf565b14611bb7576040517f2e0d859e000000000000000000000000000000000000000000000000000000008152600481018590526024016108d8565b6001830154790100000000000000000000000000000000000000000000000000900460ff1680611c16576040517f9c863e38000000000000000000000000000000000000000000000000000000008152600481018690526024016108d8565b6001840180547fffffffffff00ffffffffffffffffffffffffffffffffffffffffffffffffffff167a040000000000000000000000000000000000000000000000000000179055604051859033907f4896181ff8f4543cc00db9fe9b6fb7e6f032b7eb772c72ab1ec1b4d2e03b936990600090a35050505050565b6000818152600c60205260409020600181015473ffffffffffffffffffffffffffffffffffffffff16338114611d18576040517fc8716e2e00000000000000000000000000000000000000000000000000000000815233600482015273ffffffffffffffffffffffffffffffffffffffff82166024820152604481018490526064016108d8565b60018201547a010000000000000000000000000000000000000000000000000000900460ff166002816004811115611d5257611d526128cf565b14611d8c576040517f2e0d859e000000000000000000000000000000000000000000000000000000008152600481018590526024016108d8565b6001830180547fffffffffff00ffffffffffffffffffffffffffffffffffffffffffffffffffff167a030000000000000000000000000000000000000000000000000000179055604051849033907f121c5042302bae5fc561fbc64368f297ca60a880878e1e3a7f7e9380377260bf90600090a350505050565b600b5473ffffffffffffffffffffffffffffffffffffffff163314611e8057600b546040517fbceea52800000000000000000000000000000000000000000000000000000000815233600482015273ffffffffffffffffffffffffffffffffffffffff9091166024820152604481018390526064016108d8565b6000828152600c602052604090206001808201547a010000000000000000000000000000000000000000000000000000900460ff1690816004811115611ec857611ec86128cf565b14611f02576040517f2e0d859e000000000000000000000000000000000000000000000000000000008152600481018590526024016108d8565b8215611f81576001820180547fffffffffff00ffffffffffffffffffffffffffffffffffffffffffffffffffff167a020000000000000000000000000000000000000000000000000000179055604051849033907f839008e60c65ba5a2989da6ab2f390f6d5c6ed41dbf01b0aa8a78c92e58db0ac90600090a3611fd9565b6001820180547fffffffffff00ffffffffffffffffffffffffffffffffffffffffffffffffffff169055604051849033907f529f5d1a3c017d8dad388c9c15a06f95e1dad5e2c90e128764fec8913c1ebcd290600090a35b50505050565b6000818152600c60205260409020600181015473ffffffffffffffffffffffffffffffffffffffff16338114612066576040517fc8716e2e00000000000000000000000000000000000000000000000000000000815233600482015273ffffffffffffffffffffffffffffffffffffffff82166024820152604481018490526064016108d8565b60018201547a010000000000000000000000000000000000000000000000000000900460ff1660008160048111156120a0576120a06128cf565b146120da576040517f2e0d859e000000000000000000000000000000000000000000000000000000008152600481018590526024016108d8565b6001830180547fffffffffff00ffffffffffffffffffffffffffffffffffffffffffffffffffff167a010000000000000000000000000000000000000000000000000000179055604051849033907fdf5ce4804e83efd6a4753557ddda95e169cc5f68c40ca5967f5fceaef0f9b4f790600090a350505050565b60065473ffffffffffffffffffffffffffffffffffffffff1633146121c7576006546040517fa43d6ada00000000000000000000000000000000000000000000000000000000815233600482015273ffffffffffffffffffffffffffffffffffffffff90911660248201526044016108d8565b73ffffffffffffffffffffffffffffffffffffffff8116612214576040517fd92e233d00000000000000000000000000000000000000000000000000000000815260040160405180910390fd5b600b80547fffffffffffffffffffffffff00000000000000000000000000000000000000001673ffffffffffffffffffffffffffffffffffffffff92909216919091179055565b6000808211801561226e57506009548211155b1561228657506000908152600c602052604090205490565b6040517f3e4ce8e7000000000000000000000000000000000000000000000000000000008152600481018390526024016108d8565b7aff00000000000000ff00000000000000ff00000000000000ff00006bffffffff0000000000000000604083901c9081167bffffffff00000000000000000000000000000000000000000000000084161760201c6fffffffff000000000000000000000000919091167fffffffff0000000000000000000000000000000000000000000000000000000084161717601081901c9182167eff00000000000000ff00000000000000ff00000000000000ff000000000000821617600890811c7bff00000000000000ff00000000000000ff00000000000000ff000000939093167fff00000000000000ff00000000000000ff00000000000000ff000000000000009290921691909117919091179081901c7e0f000f000f000f000f000f000f000f000f000f000f000f000f000f000f000f167f0f000f000f000f000f000f000f000f000f000f000f000f000f000f000f000f00600492831c16179061243f827f0606060606060606060606060606060606060606060606060606060606060606612d36565b901c7f0f0f0f0f0f0f0f0f0f0f0f0f0f0f0f0f0f0f0f0f0f0f0f0f0f0f0f0f0f0f0f0f16602761246f9190613018565b612499827f3030303030303030303030303030303030303030303030303030303030303030612d36565b61077f9190612d36565b6124ad8282612605565b73ffffffffffffffffffffffffffffffffffffffff82163b15612601576040517f150b7a0200000000000000000000000000000000000000000000000000000000808252336004830152600060248301819052604483018490526080606484015260848301529073ffffffffffffffffffffffffffffffffffffffff84169063150b7a029060a4016020604051808303816000875af1158015612554573d6000803e3d6000fd5b505050506040513d601f19601f820116820180604052508101906125789190612cea565b7fffffffff000000000000000000000000000000000000000000000000000000001614612601576040517f08c379a000000000000000000000000000000000000000000000000000000000815260206004820152601060248201527f554e534146455f524543495049454e540000000000000000000000000000000060448201526064016108d8565b5050565b73ffffffffffffffffffffffffffffffffffffffff8216612682576040517f08c379a000000000000000000000000000000000000000000000000000000000815260206004820152601160248201527f494e56414c49445f524543495049454e5400000000000000000000000000000060448201526064016108d8565b60008181526002602052604090205473ffffffffffffffffffffffffffffffffffffffff161561270e576040517f08c379a000000000000000000000000000000000000000000000000000000000815260206004820152600e60248201527f414c52454144595f4d494e54454400000000000000000000000000000000000060448201526064016108d8565b73ffffffffffffffffffffffffffffffffffffffff8216600081815260036020908152604080832080546001019055848352600290915280822080547fffffffffffffffffffffffff0000000000000000000000000000000000000000168417905551839291907fddf252ad1be2c89b69c2b068fc378daa952ba7f163c4a11628f55a4df523b3ef908290a45050565b7fffffffff00000000000000000000000000000000000000000000000000000000811681146127cc57600080fd5b50565b6000602082840312156127e157600080fd5b81356127ec8161279e565b9392505050565b60005b8381101561280e5781810151838201526020016127f6565b50506000910152565b60208152600082518060208401526128368160408501602087016127f3565b601f017fffffffffffffffffffffffffffffffffffffffffffffffffffffffffffffffe0169190910160400192915050565b60006020828403121561287a57600080fd5b5035919050565b803573ffffffffffffffffffffffffffffffffffffffff81168114610f7f57600080fd5b600080604083850312156128b857600080fd5b6128c183612881565b946020939093013593505050565b7f4e487b7100000000000000000000000000000000000000000000000000000000600052602160045260246000fd5b87815273ffffffffffffffffffffffffffffffffffffffff8716602082015261ffff868116604083015285166060820152600084900b608082015282151560a082015260e081016005831061297c577f4e487b7100000000000000000000000000000000000000000000000000000000600052602160045260246000fd5b8260c083015298975050505050505050565b6000806000606084860312156129a357600080fd5b6129ac84612881565b92506129ba60208501612881565b9150604084013590509250925092565b7f4e487b7100000000000000000000000000000000000000000000000000000000600052604160045260246000fd5b600060208284031215612a0b57600080fd5b813567ffffffffffffffff80821115612a2357600080fd5b818401915084601f830112612a3757600080fd5b813581811115612a4957612a496129ca565b604051601f82017fffffffffffffffffffffffffffffffffffffffffffffffffffffffffffffffe0908116603f01168101908382118183101715612a8f57612a8f6129ca565b81604052828152876020848701011115612aa857600080fd5b826020860160208301376000928101602001929092525095945050505050565b600060208284031215612ada57600080fd5b6127ec82612881565b803561ffff81168114610f7f57600080fd5b60008060008060808587031215612b0b57600080fd5b84359350612b1b60208601612ae3565b9250612b2960408601612ae3565b915060608501358060000b8114612b3f57600080fd5b939692955090935050565b80358015158114610f7f57600080fd5b60008060408385031215612b6d57600080fd5b612b7683612881565b9150612b8460208401612b4a565b90509250929050565b60008060408385031215612ba057600080fd5b50508035926020909101359150565b600080600080600060808688031215612bc757600080fd5b612bd086612881565b9450612bde60208701612881565b935060408601359250606086013567ffffffffffffffff80821115612c0257600080fd5b818801915088601f830112612c1657600080fd5b813581811115612c2557600080fd5b896020828501011115612c3757600080fd5b9699959850939650602001949392505050565b60008060408385031215612c5d57600080fd5b612c6683612881565b9150612b8460208401612881565b60008060408385031215612c8757600080fd5b82359150612b8460208401612b4a565b600181811c90821680612cab57607f821691505b602082108103612ce4577f4e487b7100000000000000000000000000000000000000000000000000000000600052602260045260246000fd5b50919050565b600060208284031215612cfc57600080fd5b81516127ec8161279e565b7f4e487b7100000000000000000000000000000000000000000000000000000000600052601160045260246000fd5b8082018082111561077f5761077f612d07565b601f821115610eff57600081815260208120601f850160051c81016020861015612d705750805b601f850160051c820191505b81811015612d8f57828155600101612d7c565b505050505050565b815167ffffffffffffffff811115612db157612db16129ca565b612dc581612dbf8454612c97565b84612d49565b602080601f831160018114612e185760008415612de25750858301515b7fffffffffffffffffffffffffffffffffffffffffffffffffffffffffffffffff600386901b1c1916600185901b178555612d8f565b6000858152602081207fffffffffffffffffffffffffffffffffffffffffffffffffffffffffffffffe08616915b82811015612e6557888601518255948401946001909101908401612e46565b5085821015612ea157878501517fffffffffffffffffffffffffffffffffffffffffffffffffffffffffffffffff600388901b60f8161c191681555b5050505050600190811b01905550565b600073ffffffffffffffffffffffffffffffffffffffff808816835280871660208401525084604083015260806060830152826080830152828460a0840137600060a0848401015260a07fffffffffffffffffffffffffffffffffffffffffffffffffffffffffffffffe0601f85011683010190509695505050505050565b6000808654612f3e81612c97565b60018281168015612f565760018114612f8957612fb8565b7fffffffffffffffffffffffffffffffffffffffffffffffffffffffffffffff0084168752821515830287019450612fb8565b8a60005260208060002060005b85811015612faf5781548a820152908401908201612f96565b50505082870194505b505050508551612fcc818360208a016127f3565b019384525050602082015260400192915050565b60007fffffffffffffffffffffffffffffffffffffffffffffffffffffffffffffffff820361301157613011612d07565b5060010190565b808202811582820484141761077f5761077f612d0756fea264697066735822122020f58ddfe8b3c7cbed58cd02d23bbb6fd6fdf4ba4e5d45113c93f9921d878fb364736f6c63430008130033",
  "linkReferences": {},
  "deployedLinkReferences": {}
}